:04080000A3EF05F06D
:060808005D82BDED06F06B
:100818005D80D8CF11F0E8CF12F0E0CF13F0F3CF1E
:1008280014F0F4CF15F0F6CF16F0F7CF17F0F8CF95
:1008380018F0F5CF19F0F2A424EF04F026EF04F035
:100848008FEF05F03FC0D6FF40C0D7FFF2947AEF94
:1008580005F0D8903D34056E3E34066E000E086EE5
:10086800030E076E4EEC09F005503B240F6E065040
:100878003C20106E030E0F26000E10220FC0F6FF4C
:1008880010C0F7FF0900F5CF02F00900F5CF03F01B
:100898000A00F5CF04F004C024F002C020F003C021
:1008A80021F02EEF05F024500F0B8009D56E205053
:1008B80022083F6E2150D8A0E82A0008406E3D4A21
:1008C8003E2A5CEF05F0F29CF29E000E4A6E000E86
:1008D800496E000E486E000E476E000E466E000E02
:1008E800456E000E356E000E366E000E376E000E29
:1008F8003E6E000E3D6E000E386E000E396E000E14
:100908003A6E000E4B6E000E0D6E000E22EC08F0D3
:10091800000E226EF30E2224F66EF76A3B0EF722C3
:100928000800F55034EC09F0222A0F0E22649FEFDC
:1009380004F0A1EF04F08EEF04F0000E0D6E010E2E
:1009480022EC08F0100E236EF30E2324F66EF76ADD
:100958003B0EF7220800F55034EC09F0232A1F0E4D
:100968002364B9EF04F0BBEF04F0A8EF04F08FEFB5
:1009780005F003C0CBFF02500409CA6E63EF04F010
:1009880024C00FF00C0E0F16D8900F36D8900F34E5
:100998008109B16E20501F08436E2150D8A0E82A63
:1009A8000008446E63EF04F024C00FF00C0E0F161D
:1009B800D8900F36D8900F348109CD6E2050150885
:1009C800416E2150D8A0E82A0008426E63EF04F077
:1009D800FF0E02141A6E070E03141B6E1AC005F0E0
:1009E8001BC006F0000E086E040E076E34EC07F00C
:1009F80005C049F006C04AF063EF04F0FF0E021488
:100A08001C6E070E03141D6E1CC005F01DC006F0F9
:100A1800000E086E040E076E34EC07F005C047F0B0
:100A280006C048F063EF04F0FF0E02141E6E070EB6
:100A380003141F6E1EC005F01FC006F0000E086EDE
:100A4800020E076E34EC07F005C045F006C046F00C
:100A580063EF04F02450F00B0F6E106A1050000A78
:100A6800D8B439EF05F05CEF05F00F50400AD8B460
:100A780057EF04F0200AD8B467EF04F0E00AD8B4BE
:100A8800BDEF04F0100AD8B4C4EF04F0300AD8B4AB
:100A9800D8EF04F0600AD8B4ECEF04F0100AD8B428
:100AA80002EF05F0300AD8B418EF05F05CEF05F056
:100AB800D8903D34056E3E34066E000E086E030E67
:100AC800076E4EEC09F005503B240F6E06503C2093
:100AD800106E0FC0F6FF10C0F7FF0900F5CF35F014
:100AE8000900F5CF36F00A00F5CF37F03850351841
:100AF8000CE13950361809E13A503718D8B487EF65
:100B080005F089EF05F02DEF04F0010E3826000EF0
:100B18003922000E3A2219C0F5FF18C0F8FF17C095
:100B2800F7FF16C0F6FF15C0F4FF14C0F3FF13C09B
:100B3800E0FF12C0E8FF11C0D8FF5D901000E0EFA1
:100B480008F09368000E946E000E816E000E826E9F
:100B5800D08ED59A810ED56EF28AF194D58ECD922B
:100B6800810ECD6E9D809F80CD80000ECA6ECB68B1
:100B78009D829F82CA84B192810EB16EA082A282A8
:100B8800B180FEEC08F081CF31F03150D8B4CFEF0E
:100B980005F0D1EF05F0C7EF05F04B503118D8B488
:100BA800D8EF05F0DAEF05F0C7EF05F0F29CF29EFA
:100BB800000E346E10EF06F0010E4B6E000E346E10
:100BC8003DEF06F0020E4B6E010E346E3DEF06F05F
:100BD800040E4B6E020E346E3DEF06F0080E4B6E9F
:100BE800030E346E3DEF06F0100E4B6E040E346E9D
:100BF8003DEF06F0200E4B6E050E346E3DEF06F00D
:100C0800400E4B6E060E346E3DEF06F0800E4B6EB6
:100C1800070E346E3DEF06F031502F6E306A3050BB
:100C2800000AD8B41AEF06F03DEF06F02F50010A7B
:100C3800D8B4E0EF05F0030AD8B4E6EF05F0060AE9
:100C4800D8B4ECEF05F00C0AD8B4F2EF05F0180AA6
:100C5800D8B4F8EF05F0300AD8B4FEEF05F0600A12
:100C6800D8B404EF06F0C00AD8B40AEF06F03DEF96
:100C780006F0000E4A6E000E496E000E486E000E19
:100C8800476E000E466E000E456E000E356E000E65
:100C9800366E000E376E000E3E6E000E3D6E000E74
:100CA800386E000E396E000E3A6E3450020DF35055
:100CB8004C0FD96EDA6ADECF3BF0DDCF3CF0000E88
:100CC8002D6E000EEEEC07F0000E326E3450200D43
:100CD800F30EF3242F6E3B0EF420306E32502F2685
:100CE800000E30222FC0F6FF30C0F7FF0800F55085
:100CF8001AEC09F0322A0F0E326485EF06F087EFFE
:100D080006F06AEF06F0000E2D6E010EEEEC07F00D
:100D1800100E336E3450200DF30EF3242F6E3B0E5D
:100D2800F420306E33502F26000E30222FC0F6FFED
:100D380030C0F7FF0800F5501AEC09F0332A1F0EEF
:100D48003364A9EF06F0ABEF06F08EEF06F0F90E6C
:100D58003B1809E1FF0E3C18D8B4B5EF06F0B7EF21
:100D680006F0C7EF05F0F28CF28EC7EF05F0A3EF9F
:100D780005F006009EA0C3EF06F0C5EF06F0D3EF1E
:100D880006F041C0CEFF42C0CFFF9E905CA0CFEFDF
:100D980006F0D2EF06F05C80D3EF06F05C909EA2DE
:100DA800D8EF06F0DAEF06F0E4EF06F09E925CA4C6
:100DB800E0EF06F0E3EF06F05C84E4EF06F05C9405
:100DC800A1A2E9EF06F0EBEF06F0F9EF06F043C059
:100DD800B2FF44C0B3FFA1925CA2F5EF06F0F8EFB2
:100DE80006F05C82F9EF06F05C92080E016E000EC8
:100DF800006E5CA402EF07F004EF07F00AEF07F0BB
:100E0800495000264A5001220EEF07F04950005E73
:100E18004A50015A5CA213EF07F015EF07F01BEFD9
:100E280007F047500026485001221FEF07F04750AF
:100E3800005E4850015A5CA024EF07F026EF07F047
:100E48002CEF07F0455000264650012230EF07F0FE
:100E58004550005E4650015A96EC07F05D9211002D
:100E6800000E0A6E08BE3DEF07F03BEF07F043EFB8
:100E780007F0076C081ED8B0082A010E0A6E06BED5
:100E88004AEF07F048EF07F050EF07F0056C061E31
:100E9800D8B0062A010E0A1A000E0C6E000E0B6E50
:100EA80007500810D8B45BEF07F05DEF07F085EF47
:100EB80007F0010E096E65EF07F0D890073608367F
:100EC800092A08AE6AEF07F06CEF07F061EF07F048
:100ED800D8900B360C360750055C08500658D8A039
:100EE80078EF07F07AEF07F07FEF07F00750055E1D
:100EF8000850065A0B80D89008320732092E6CEF3A
:100F080007F00A50D8B48BEF07F08DEF07F091EF98
:100F180007F00B6C0C1ED8B00C2A0BC005F00CC0E7
:100F280006F012000F0E0116300E01128294829004
:100F380001BE828082828292829001BC82808282FB
:100F48008292829001BA828082828292829001B8D3
:100F5800828082828292829001B68280828282928C
:100F6800829001B4828082828292829001B28280D1
:100F780082828292829001B0828082828292829062
:100F880000BE828082828292829000BC82808282AD
:100F98008292829000BA828082828292829000B885
:100FA800828082828292829000B68280828282923D
:100FB800829000B4828082828292829000B2828083
:100FC80082828292829000B0828082828292040E13
:100FD800826E12002E6E2E50D8A4F5EF07F0F7EFB0
:100FE80007F0FBEF07F02D50800FA0EC08F02E045F
:100FF800D8A401EF08F003EF08F007EF08F02D5030
:10100800C00FA0EC08F0020E2E18D8A40EEF08F0BE
:1010180010EF08F014EF08F02D50940FA0EC08F032
:10102800030E2E18D8A41BEF08F01DEF08F021EFCF
:1010380008F02D50D40FA0EC08F012000E6E0E50E0
:10104800D8A429EF08F02BEF08F02FEF08F00D5087
:10105800800FC0EC08F00E04D8A435EF08F037EF85
:1010680008F03BEF08F00D50C00FC0EC08F0020E7E
:101078000E18D8A442EF08F044EF08F048EF08F043
:101088000D50940FC0EC08F0030E0E18D8A44FEFC3
:1010980008F051EF08F055EF08F00D50D40FC0ECF0
:1010A80008F01200000E286E000E276E6FEF08F091
:1010B800000E2A6E000E296E294A2A2A690E295C1A
:1010C800020E2A58D8A06BEF08F06DEF08F060EF19
:1010D80008F0274A282A2550275C26502858D8A0E7
:1010E80078EF08F07AEF08F05CEF08F01200000ED5
:1010F800086E000E076E94EF08F0000E0A6E000EE0
:10110800096E094A0A2A690E095C020E0A58D8A013
:1011180090EF08F092EF08F085EF08F0074A082AE8
:101128000550075C06500858D8A09DEF08F09FEFBF
:1011380008F081EF08F012002C6E83942CC02BF07D
:10114800F00E2B1683500F0B2B10836E79EC09F0E1
:101158002CC02BF02B3AF00E2B16F00E2B168350CA
:101168000F0B2B10836E79EC09F0000E266E0A0E19
:10117800256E56EC08F012000C6E83940CC00BF030
:10118800F00E0B1683500F0B0B10836E83EC09F0D7
:101198000CC00BF00B3AF00E0B16F00E0B1683502A
:1011A8000F0B0B10836E83EC09F0000E066E0A0E0F
:1011B800056E7BEC08F012001A0EF66E130EF76E31
:1011C800000EF86E00EE4CF010EE10F00900F5CFAE
:1011D800EEFFE550E150FAE15C6A00EE35F0170EDB
:1011E800EE6AE806FDE15D905D92000EF86E000182
:1011F800A5EF05F0000E956E8392330EA0EC08F073
:10120800320EA0EC08F0280EA0EC08F00E0EA0ECB0
:1012180008F0010EA0EC08F0060EA0EC08F0000E95
:10122800266E640E256E56EC08F01200276E838435
:1012380027C026F0F00E261683500F0B2610836E5B
:1012480079EC09F027C026F0263AF00E2616F00EA3
:10125800261683500F0B2610836E79EC09F01200C6
:10126800076E838407C006F0F00E061683500F0B36
:101278000610836E83EC09F007C006F0063AF00EFC
:101288000616F00E061683500F0B0610836E83ECBD
:1012980009F0120005500702F3CF09F0F4CF0AF065
:1012A80005500802F3500A2606500702F3500A2692
:1012B80009C005F00AC006F01200000E256E252AA6
:1012C800130E25646AEF09F06CEF09F063EF09F07B
:1012D8001200000E056E052A130E056476EF09F05C
:1012E80078EF09F06FEF09F01200839661EC09F0CE
:1012F800838661EC09F0839661EC09F0120083960D
:101308006DEC09F083866DEC09F083966DEC09F0BD
:101318001200F9FF57FF37F5F33C5DA509CF997522
:02132800A1E53D
:103BF20000202020202020202020202020202020E3
:103C020020202020202020202020202020202020B2
:103C12002020202020205363616C6520202020205A
:103C22002020202020202020202020202020202092
:103C3200202020204368726F6D6174696320202008
:103C42002020202020417270656767696F20202044
:103C5200204C6567656E64204F66205A656C64610E
:103C6200202020204F766572776F726C64202020AE
:103C72002020204D6567616C6F76616E696120203E
:103C82002020202020202020202020202020202032
:103C920020204C6176656E64657220546F776E20C9
:103CA2002020202020202020202020202020202012
:103CB20020202050616C6C657420546F776E202038
:103CC20020202020202020202020202020202020F2
:103CD20020204672657175656E6379205465737430
:103CE20020202020202020202020202020202020D2
:103CF200200000008D204800000042948000000057
:103D02008003C00000000485900000008003D00002
:103D1200000097A7A00000008003E00200007805E1
:103D2200C00200007805D00200007805E0DF010043
:103D32000000E0E0010097A7A0E001007805E07F25
:103D420002000000E080020097A7A0800200780530
:103D5200E01F03000000E020030097A7A02003005B
:103D62007805E0BF03000000C0BF03000000D0BF21
:103D720003000000E0C0030097A7A0C0030078057D
:103D8200E00005004294800005007805C0000500AF
:103D92000485900005007805D09F05000000C09FB3
:103DA20005000000D09F05000000E0A0050042943D
:103DB20080A005007805C0A00500048590A005003C
:103DC2007805D0A0050097A7A0A005007805E03FE0
:103DD20006000000C03F06000000D04006004294EA
:103DE200804006007805C040060004859040060029
:103DF2007805D0DF06000000C0DF06000000D0E03A
:103E02000600429480E006007805C0E006000485C2
:103E120090E006007805D07F07000000C07F070011
:103E22000000D07F07000000E080070042948080FD
:103E320007007805C08007004F959080070078053D
:103E4200D08007001DBCA08007007805E0BF0800F5
:103E52000000C0BF08000000D0C0080032D680C0F9
:103E620008007805C0C008004F9590C0080078058A
:103E7200D05F09000000C05F09000000D05F0900A8
:103E82000000E06009004294806009007805C0608B
:103E920009004F95906009007805D06009001DBCAB
:103EA200A06009007805E0FF09000000E0000A00B8
:103EB2001DBCA0000A007805E09F0A000000E0A0F7
:103EC2000A001DBCA0A00A007805E03F0B0000001C
:103ED200E0400B001DBCA0400B007805E07F0C0009
:103EE2000000C07F0C000000D0800C004294808053
:103EF2000C007805C0800C004F9590800C0078056E
:103F0200D01F0D000000C01F0D000000D01F0D00CB
:103F12000000E0200D00429480200D007805C020B2
:103F22000D004F9590200D007805D0200D001DBC8E
:103F3200A0200D007805E0BF0D000000C0BF0D00FD
:103F42000000D0C00D00429480C00D007805C0C0B2
:103F52000D004F9590C00D007805D05F0E00000057
:103F6200C05F0E000000D0600E00429480600E0020
:103F72007805C0600E004F9590600E007805D0FF66
:103F82000E000000C0FF0E000000D0FF0E00000077
:103F9200E0000F00429480000F007805C0000F007F
:103FA200ED8C90000F007805D0000F0027D3A00001
:103FB2000F007805E03F10000000C03F1000000035
:103FC200D040100032D6804010007805C04010006A
:103FD200ED8C904010007805D0DF10000000C0DFAB
:103FE20010000000D0DF10000000E0E0100042945A
:103FF20080E010007805C0E01000ED8C90E0100029
:104002007805D0E0100027D3A0E010007805E07F0B
:1040120011000000E080110027D3A0801100780574
:10402200E01F12000000E020120027D3A02012009F
:104032007805E0BF12000000E0C0120027D3A0C044
:1040420012007805E0FF13000000C0FF130000001B
:10405200D00014004294800014007805C0001400BF
:10406200ED8C900014007805D09F14000000C09FD2
:1040720014000000D09F14000000E0A0140042943D
:1040820080A014007805C0A01400ED8C90A014004C
:104092007805D0A0140027D3A0A014007805E03F33
:1040A20015000000C03F15000000D04015004294EA
:1040B200804015007805C0401500ED8C9040150039
:1040C2007805D0DF15000000C0DF15000000D0E049
:1040D2001500429480E015007805C0E01500ED8CD3
:1040E20090E015007805D07F16000000C07F160012
:1040F2000000D07F16000000E0801600429480800D
:1041020016007805C0801600ED8C908016007805A8
:10411200D0801600B5DFA08016007805E06F17008A
:104122000000C06F17000000D07017004AB2807004
:1041320017007805C07017004F959070170078052A
:10414200D0E717000000C0E717000000D0E8170012
:104152004AB280E817007805C0E817004F9590E84A
:1041620017007805D05F18000000C05F180000003B
:10417200D05F18000000E06018004AB280601800AA
:104182007805C06018004F95906018007805D060DF
:104192001800B5DFA06018007805E04F1900000094
:1041A200C04F19000000D05019004AB280501900C7
:1041B2007805C05019004F95905019007805D0C766
:1041C20019000000C0C719000000D0C819004AB287
:1041D20080C819007805C0C819004F9590C8190009
:1041E2007805D03F1A000000C03F1A000000D03FFF
:1041F2001A000000E0401A004AB280401A00780516
:10420200C0401A004F9590401A007805D0401A001D
:10421200B5DFA0401A007805E02F1B000000C02F78
:104222001B000000D0301B004AB280301B00780512
:10423200C0301B004F9590301B007805D0A71B00A3
:104242000000C0A71B000000D0A81B004AB280A833
:104252001B007805C0A81B004F9590A81B0078058D
:10426200D01F1C000000C01F1C000000D01F1C003B
:104272000000E0201C004AB280201C007805C0200B
:104282001C004F9590201C007805D0201C004DC7C3
:10429200A0201C007805E00F1D000000C00F1D00CB
:1042A2000000D00F1D000000E0101D004AB2801077
:1042B2001D007805C0101D004F9590101D00780557
:1042C200D0101D008FB1A0101D007805E0FF1D0069
:1042D2000000C0FF1D000000D0FF1D000000E00034
:1042E2001E00429480001E007805C0001E00DB6F95
:1042F20090001E007805D0001E0097A7A0001E00A7
:104302007805E0DF1F000000C0DF1F000000D0DFE3
:104312001F000000E0E01F004AB280E01F007805A5
:10432200C0E01F00048590E01F007805D0E01F0068
:1043320097A7A0E01F007805E07F20000000D07F53
:1043420020000000E0802000048590802000780595
:10435200D080200097A7A08020007805E01F2100D0
:104362000000D01F21000000E02021004F95902086
:1043720021007805D02021001DBCA0202100780555
:10438200E0BF21000000D0BF21000000E0C02100FA
:10439200048590C021007805D0C0210097A7A0C055
:1043A20021007805E02723000000C0272300000039
:1043B200D02823004294802823007805C0282300B7
:1043C2000485902823007805D09F23000000C09F19
:1043D20023000000D09F23000000E0A023004294AD
:1043E20080A023007805C0A02300048590A02300AC
:1043F2007805D0A0230097A7A0A023007805E01796
:1044020024000000C01724000000D01824002AC68F
:10441200801824007805C01824008D7D901824008F
:104422007805D08F24000000C08F24000000D090B7
:1044320024003297809024007805C0902400DB6F1E
:10444200909024007805D00725000000C0072500C1
:104452000000D00825001AFA800825007805C00857
:104462002500A763900825007805D07F250000006D
:10447200C07F25000000D07F25000000E0802500DD
:1044820022B2808025007805C08025000F5E9080D2
:1044920025007805D08025001DBCA0802500780568
:1044A200E0E726000000D0E82600CC5390E8260082
:1044B2007805D05F27000000D05F27000000E06091
:1044C2002700CC53906027007805D06027001DBCE0
:1044D200A06027007805E0D727000000D0D8270089
:1044E200A74A90D827007805D0FF27000000E000F7
:1044F20028001DBCA00028007805E04F280000001D
:10450200D05028008242905028007805D09F280081
:104512000000E0A0280027D3A0A028007805E0C76B
:1045220028000000D0C82800C73E90C8280078059F
:10453200D03F29000000D03F29000000E0402900C0
:10454200ED37904029007805D04029001DBCA040DD
:1045520029007805E02F2A000000C02F2A00000061
:10456200D0302A0022B280302A007805C0302A00DA
:104572000F5E90302A007805D01F2B000000C01F6C
:104582002B000000D01F2B000000E0202B0022B2E5
:1045920080202B007805C0202B000F5E90202B007E
:1045A2007805D0202B001DBCA0202B007805E0BF91
:1045B2002B000000C0BF2B000000D0C02B0022A89F
:1045C20080C02B007805C0C02B00CC5390C02B00BC
:1045D2007805D05F2C000000C05F2C000000D06086
:1045E2002C0069D680602C007805C0602C00A74A98
:1045F20090602C007805D0FF2C000000C0FF2C003A
:104602000000D0FF2C000000E0002D002285800079
:104612002D007805C0002D00774690002D0078050A
:10462200D0002D0027D3A0002D007805E0672E00D2
:104632000000D0682E00936990682E007805D0DFC4
:104642002E000000D0DF2E000000E0E02E00936973
:1046520090E02E007805D0E02E0027D3A0E02E00B7
:104662007805E0572F000000D0582F000F5E9058B9
:104672002F007805D07F2F000000E0802F0027D385
:10468200A0802F007805E0CF2F000000D0D02F00AF
:10469200CC5390D02F007805D01F30000000E020CE
:1046A20030001AFBA02030007805E04730000000FF
:1046B200D0483000A74A904830007805D0BF30007B
:1046C2000000D0BF30000000E0C03000774690C04C
:1046D20030007805D0C0300027D3A0C03000780564
:1046E200E0FF31000000C00032002285800032006D
:1046F2007805C09F32000000C09F32000000D09FAA
:1047020032000000E0A03200228580A0320078054D
:10471200C0A03200774690A032007805D0A03200C7
:1047220027D3A0A032007805E03F33000000C03F4D
:1047320033000000D040330069D680403300780552
:10474200C0403300A74A904033007805D0DF3300E1
:104752000000C0DF33000000D0E0330022A880E078
:1047620033007805C0E03300CC5390E03300780585
:10477200D07F34000000C07F34000000D07F3400BE
:104782000000E080340069D6808034007805C08063
:1047920034007746908034007805D0803400ED8C68
:1047A200A08034007805E0BF35000000C0BF3500AE
:1047B2000000D0C0350022A880C035007805C0C0F6
:1047C20035000F5E90C035007805D05F36000000DE
:1047D200C05F36000000D05F36000000E0603600A7
:1047E20022B2806036007805C06036000F5E9060AD
:1047F20036007805D0603600ED8CA0603600780572
:10480200E0FF36000000D0FF36000000E000370075
:104812000F5E900037007805D0003700ED8CA000C5
:1048220037007805E09F37000000D09F3700000076
:10483200E0A03700936990A037007805D0A0370038
:104842002F9EA0A037007805E03F38000000D03F3F
:1048520038000000E04038000F5E904038007805D4
:10486200D0403800ED8CA04038007805E07F390058
:104872000000D08039000F5E908039007805D01F8B
:104882003A000000C01F3A000000D01F3A000000AA
:10489200E0203A0022B280203A007805C0203A0097
:1048A2000F5E90203A007805D0203A00ED8CA020CF
:1048B2003A007805E0BF3A000000D0C03A009369A0
:1048C20090C03A007805D05F3B000000D0603B000A
:1048D2000F5E90603B007805D0FF3B000000C0FFF8
:1048E2003B000000D0FF3B000000E0003C001AFA51
:1048F20080003C007805C0003C00936990003C00B9
:104902007805D0003C002F9EA0003C007805E0EF27
:104912003C000000C0EF3C000000D0F03C001AFA5E
:1049220080F03C007805C0F03C00936990F03C00B8
:104932007805D0673D000000C0673D000000D068E8
:104942003D0022B280683D007805C0DF3D000000D6
:10495200C0DF3D000000E0E03D0022A880E03D0015
:104962007805C0E03D002F9EA0E03D007805E07F85
:104972003E000000E0803E002F9EA0803E007805B1
:10498200E0D03E00936990D03E007805D01F3F00F2
:104992000000E0203F0097A7A0203F007805E047F5
:1049A2003F000000D0483F000F5E90483F0078056E
:1049B200D0BF3F000000D0BF3F000000E0C03F007A
:1049C200CC5390C03F007805D0C03F002F9EA0C0BE
:1049D2003F007805E09F41000000C09F41000000B9
:1049E200D09F41000000E0A0410022B280A041001F
:1049F2007805C0A041000F5E90A041007805D0A0CC
:104A020041002F9EA0A041007805E08F42000000E7
:104A1200C08F42000000D09042001AFA80904200FB
:104A22007805C09042009369909042007805D07F4B
:104A320043000000C07F43000000D07F430000001D
:104A4200E080430032A0808043007805C0804300AC
:104A5200DB6F908043007805D08043001DBCA080AE
:104A620043007805E06F44000000C06F440000007E
:104A7200D070440032A0807044007805C0704400B9
:104A8200DB6F907044007805D0E744000000C0E777
:104A920044000000D0E844001AFA80E84400780597
:104AA200C05F45000000C05F45000000E0604500B7
:104AB20022B2806045007805C06045001DBCA06040
:104AC20045007805E0FF45000000E00046001DBCFF
:104AD200A00046007805E0504600DB6F905046008B
:104AE2007805D09F46000000E0A0460027D3A0A092
:104AF20046007805E0C746000000D0C8460093692A
:104B020090C846007805D03F47000000D03F4700DC
:104B12000000E04047000F5E904047007805D0401B
:104B220047001DBCA04047007805E01F4900000077
:104B3200C01F49000000D01F49000000E0204900CA
:104B42001AFA802049007805C02049009369902014
:104B520049007805D02049001DBCA02049007805F5
:104B6200E00F4A000000C00F4A000000D0104A00C7
:104B720032A080104A007805C0104A00DB6F901006
:104B82004A007805D0FF4A000000C0FF4A0000003A
:104B9200D0FF4A000000E0004B002AC680004B0014
:104BA2007805C0004B00DB6F90004B007805D00009
:104BB2004B004F95A0004B007805E0EF4B00000042
:104BC200C0EF4B000000D0F04B002AC680F04B0033
:104BD2007805C0F04B00DB6F90F04B007805D06792
:104BE2004C000000C0674C000000D0684C003297B7
:104BF20080684C007805C0DF4C000000C0DF4C002C
:104C02000000E0E04C001AEC80E04C007805C0E0C7
:104C12004C004F95A0E04C007805E07F4D0000006D
:104C2200E0804D004F95A0804D007805E0D04D000A
:104C32008D7D90D04D007805D01F4E000000E02001
:104C42004E004F95A0204E007805E0474E00000030
:104C5200D0484E00DB6F90484E007805D0BF4E0022
:104C62000000D0BF4E000000E0C04E00936990C02B
:104C72004E007805D0C04E004F95A0C04E0078057A
:104C8200E0AF4F000000D0B04F00A76390B04F00DC
:104C92007805D02750000000D0285000C75890282F
:104CA20050007805D09F50000000C09F50000000C7
:104CB200D09F50000000E0A050002A8480A0500045
:104CC2007805C0A05000CC5390A050007805D0A029
:104CD20050004F95A0A050007805E03F5100000021
:104CE200E04051004F95A04051007805E08F5100FF
:104CF2000000D0905100A74A909051007805D0DF73
:104D020051000000E0E051004F95A0E0510078050D
:104D1200E07F52000000C07F52000000D07F5200AE
:104D22000000E080520022B2808052007805C080EC
:104D32005200C758908052007805D0805200B5DFEB
:104D4200A08052007805E06F53000000C06F53004E
:104D52000000D07053004AB2807053007805C070D2
:104D620053008FB1907053007805D0E753000000D4
:104D7200C0E753000000D0E853004AB280E8530075
:104D82007805C0E853008FB190E853007805D05FF2
:104D920054000000C05F54000000D05F54000000C7
:104DA200E06054004AB2806054007805C06054004C
:104DB2008FB1906054007805D0605400B5DFA060D8
:104DC20054007805E04F55000000C04F5500000028
:104DD200D05055004AB2805055007805C050550059
:104DE2008FB1905055007805D0C755000000C0C75C
:104DF20055000000D0C855004AB280C85500780559
:104E0200C0C855008FB190C855007805D03F5600F4
:104E12000000C03F56000000D03F56000000E040B6
:104E220056004AB2804056007805C04056008FB105
:104E3200904056007805D0405600B5DFA04056009D
:104E42007805E02F57000000C02F57000000D03037
:104E520057004AB2803057007805C03057008FB1F2
:104E6200903057007805D0A757000000C0A7570020
:104E72000000D0A857004AB280A857007805C0A801
:104E820057008FB190A857007805D01F5800000036
:104E9200C01F58000000D01F58000000E02058003A
:104EA2004AB2802058007805C02058008FB1902067
:104EB20058007805D02058004DC7A020580078052A
:104EC200E00F59000000C00F59000000D00F590038
:104ED2000000E01059004AB2801059007805C01055
:104EE20059008FB1901059007805D01059008FB138
:104EF200A01059007805E0FF59000000C0FF5900DA
:104F02000000D0FF59000000E0005A0042948000E7
:104F12005A007805C0005A00DB6F90005A007805ED
:104F2200D0005A0097A7A0005A007805E0DF5B0086
:104F32000000C0DF5B000000D0DF5B000000E0E0AB
:104F42005B004AB280E05B007805C0E05B0004854C
:104F520090E05B007805D0E05B0097A7A0E05B00E3
:104F62007805E07F5C000000D07F5C000000E080FC
:104F72005C00048590805C007805D0805C0097A777
:104F8200A0805C007805E01F5D000000D01F5D007E
:104F92000000E0205D004F9590205D007805D02054
:104FA2005D001DBCA0205D007805E0BF5D00000033
:104FB200D0BF5D000000E0C05D00048590C05D00D0
:104FC2007805D0C05D0097A7A0C05D007805E027F6
:104FD2005F000000C0275F000000D0285F004294FD
:104FE20080285F007805C0285F00048590285F0054
:104FF2007805D09F5F000000C09F5F000000D09F37
:105002005F000000E0A05F00429480A05F0078058E
:10501200C0A05F00048590A05F007805D0A05F006B
:1050220097A7A0A05F007805E01760000000C017F6
:1050320060000000D01860002AC680186000780561
:10504200C01860008D7D901860007805D08F6000D8
:105052000000C08F60000000D09060003297809006
:1050620060007805C0906000DB6F9090600078056A
:10507200D00761000000C00761000000D008610095
:105082001AFA800861007805C0086100A7639008D9
:1050920061007805D07F61000000C07F61000000E0
:1050A200D07F61000000E080610022B28080610058
:1050B2007805C08061000F5E908061007805D08025
:1050C20061001DBCA08061007805E0E7620000007D
:1050D200D0E86200CC5390E862007805D05F6300AC
:1050E2000000D05F63000000E0606300CC5390607A
:1050F20063007805D06063001DBCA0606300780582
:10510200E0D763000000D0D86300A74A90D86300BC
:105112007805D0FF63000000E00064001DBCA00021
:1051220064007805E04F64000000D05064008242C1
:10513200905064007805D09F64000000E0A06400F5
:1051420027D3A0A064007805E0C764000000D0C89F
:105152006400C73E90C864007805D03F6500000037
:10516200D03F65000000E0406500ED3790406500EB
:105172007805D04065001DBCA04065007805E02F91
:1051820066000000C02F66000000D030660022B228
:10519200803066007805C03066000F5E9030660091
:1051A2007805D01F67000000C01F67000000D01FF5
:1051B20067000000E020670022B2802067007805C7
:1051C200C02067000F5E902067007805D02067003E
:1051D2001DBCA02067007805E0BF67000000C0BFCB
:1051E20067000000D0C0670022A880C06700780571
:1051F200C0C06700CC5390C067007805D05F6800DC
:105202000000C05F68000000D060680069D680605E
:1052120068007805C0606800A74A90606800780559
:10522200D0FF68000000C0FF68000000D0FF6800E7
:105232000000E00069002285800069007805C00056
:1052420069007746900069007805D000690027D38D
:10525200A00069007805E0DF6A000000E0E06A0073
:1052620027D3A0E06A007805E07F6B000000E080B1
:105272006B0027D3A0806B007805E01F6C00000054
:10528200E0206C001AFBA0206C007805E0BF6C00E7
:105292000000E0C06C0027D3A0C06C007805E09F3E
:1052A2006E000000C09F6E000000D09F6E000000E4
:1052B200E0A06E0051CC80A06E007805C0A06E0008
:1052C200C73E90A06E007805D0A06E0027D3A0A0A4
:1052D2006E007805E07F70000000C07F7000000063
:1052E200D07F70000000E080700012C680807000E5
:1052F2007805C0807000A74A908070007805D08041
:105302007000B5DFA08070007805E05F72000000D9
:10531200C05F72000000D05F72000000E0607200A7
:10532200228D806072007805C0607200A74A90608A
:1053320072007805D0607200B5DFA0607200780557
:10534200E0FF72000000E0007300B5DFA000730010
:105352007805E09F73000000E0A073001AFBA0A094
:1053620073007805E03F74000000E0407400B5DF90
:10537200A04074007805E01F76000000C01F760090
:105382000000D01F76000000E020760022B28020CC
:1053920076007805C0207600C75890207600780500
:1053A200D0207600B5DFA02076007805E0FF7700F8
:1053B2000000C0FF77000000D0FF77000000E0008F
:1053C200780022A8800078007805C0007800184F85
:1053D200900078007805D000780003EDA0007800F6
:1053E2007805E09F78000000E0A0780097A7A0A0D1
:1053F20078007805E03F79000000E0407900ED8C0C
:10540200A04079007805E0DF79000000E0E0790053
:105412008176A0E079007805E07F7A000000E080E4
:105422007A00CC53A0807A007805E01F7B00000050
:10543200E0207B007746A0207B007805E0BF7B0060
:105442000000E0C07B00413BA0C07B007805E09FEC
:105452007D000000C09F7D000000D09F7D00000005
:10546200E0A07D00228580A07D007805C0A07D009F
:10547200C73E90A07D007805D07F7F000000C07FEE
:105482007F000000D0807F00228D80807F00780521
:10549200C0807F00A74A90807F007805D0807F007F
:1054A200DB6FA0807F007805E05F81000000C05FB5
:1054B20081000000D05F81000000E060810022B224
:1054C200806081007805C0608100C75890608100CB
:1054D2007805D0608100B5DFA06081007805E0FF2B
:1054E20081000000E0008200B5DFA00082007805A4
:1054F200E09F82000000E0A08200B5DFA0A0820051
:105502007805E03F83000000E0408300B5DFA04063
:1055120083007805E01F85000000C01F85000000A1
:10552200D01F85000000E020850022B28020850087
:105532007805C0208500C758902085007805D0FFE7
:1055420086000000C0FF86000000D000870022A86D
:10555200800087007805C0008700184F9000870000
:105562007805D000870003EDA00087007805E09F52
:1055720087000000E0A0870097A7A0A08700780519
:10558200E03F88000000E0408800ED8CA0408800E9
:105592007805E0DF88000000E0E088008176A0E086
:1055A20088007805E07F89000000E0808900CC5304
:1055B200A08089007805E01F8A000000E0208A00B0
:1055C2007746A0208A007805E0BF8A000000E0C08C
:1055D2008A00413BA0C08A007805E09F8C00000051
:1055E200C09F8C000000D09F8C000000E0A08C00C7
:1055F200228580A08C007805C0A08C00C73E90A0B8
:105602008C007805D07F8E000000C07F8E000000E5
:10561200D0808E00228D80808E007805C0808E0022
:10562200A74A90808E007805D0808E00DB6FA08024
:105632008E007805E05F90000000C05F90000000DF
:10564200D05F90000000E060900022B28060900085
:105652007805C0609000C758906090007805D060CF
:105662009000B5DFA06090007805E0FF9000000098
:10567200E0009100B5DFA00091007805E09F910065
:105682000000E0A09100B5DFA0A091007805E03F06
:1056920092000000E0409200B5DFA0409200780541
:1056A200E01F94000000C01F94000000D01F94006F
:1056B2000000E02094003297802094007805C020FA
:1056C2009400C758902094007805D0FF9500000000
:1056D200C0FF95000000D00096001AFA80009600E4
:1056E2007805C0009600184F900096007805D0000B
:1056F20096002F9EA00096007805E0DF970000003C
:10570200E0E097002F9EA0E097007805E07F9800E8
:105712000000E08098002F9EA08098007805E01F8E
:1057220099000000E020990097A7A0209900780531
:10573200E0BF99000000E0C099002F9EA0C0990030
:105742007805E09F9B000000C09F9B000000D09F57
:105752009B000000E0A09B0022A880A09B0078058F
:10576200C0A09B00C73E90A09B007805D0A09B00E4
:105772002F9EA0A09B007805E03F9C000000E04027
:105782009C002F9EA0409C007805E0DF9C0000005A
:10579200E0E09C002F9EA0E09C007805E07F9D0049
:1057A2000000C07F9D000000D07F9D000000E080CF
:1057B2009D0022B280809D007805C0809D00CC5360
:1057C20090809D007805D0809D0097A7A0809D00C5
:1057D2007805E05F9F000000C05F9F000000D05F7F
:1057E2009F000000E0609F0032A080609F0078056B
:1057F200C0609F00CC5390609F007805D0609F00EE
:1058020097A7A0609F007805E0FF9F000000E000DE
:10581200A00097A7A000A0007805E09FA0000000CC
:10582200E0A0A0001DBCA0A0A0007805E03FA10060
:105832000000E040A10097A7A040A1007805E01F6A
:10584200A3000000C01FA3000000D01FA30000009F
:10585200E020A30042948020A3007805C020A3008A
:10586200DB6F9020A3007805D020A30097A7A0208B
:10587200A3007805E0BFA3000000E0C0A30097A743
:10588200A0C0A3007805E05FA4000000E060A400CF
:1058920097A7A060A4007805E0FFA4000000C0FF65
:1058A200A4000000D0FFA4000000E000A5002AC66A
:1058B2008000A5007805C000A5008D7D9000A500A0
:1058C2007805D000A5004F95A000A5007805E0EF6F
:1058D200A5000000C0EFA5000000D0F0A5002AC678
:1058E20080F0A5007805C0F0A5008D7D90F0A500A0
:1058F2007805D067A6000000C067A6000000D06847
:10590200A60032978068A6007805C0DFA6000000D6
:10591200C0DFA6000000E0E0A6001AEC80E0A600CE
:105922007805C0E0A6004F95A0E0A6007805E07FCC
:10593200A7000000E080A7004F95A080A70078058F
:10594200E0D0A700817690D0A7007805D01FA800EC
:105952000000E020A8004F95A020A8007805E047AD
:10596200A8000000D048A800DB6F9048A800780586
:10597200D0BFA8000000D0BFA8000000E0C0A8006F
:10598200A76390C0A8007805D0C0A8004F95A0C01A
:10599200A8007805E0AFA9000000D0B0A900A76375
:1059A20090B0A9007805D027AA000000D028AA004C
:1059B200C7589028AA007805D09FAA000000C09F6F
:1059C200AA000000D09FAA000000E0A0AA002A843A
:1059D20080A0AA007805C0A0AA00CC5390A0AA007B
:1059E2007805D0A0AA004F95A0A0AA007805E03FB4
:1059F200AB000000E040AB004F95A040AB00780543
:105A0200E08FAB000000D090AB00A74A9090AB00B3
:105A12007805D0DFAB000000E0E0AB004F95A0E0DE
:105A2200AB007805E07FAC000000C07FAC00000056
:105A3200D07FAC000000E080AC0022B28080AC00DD
:105A42007805C080AC00C7589080AC007805D08043
:105A5200AC00B5DFA080AC007805E06FAD000000BF
:105A6200C06FAD000000D070AD004AB28070AD00D2
:105A72007805C070AD008FB19070AD007805D0E7A9
:105A8200AD000000C0E7AD000000D0E8AD004AB2B2
:105A920080E8AD007805C0E8AD008FB190E8AD00B8
:105AA2007805D05FAE000000C05FAE000000D05F9E
:105AB200AE000000E060AE004AB28060AE00780541
:105AC200C060AE008FB19060AE007805D060AE00CD
:105AD200B5DFA060AE007805E04FAF000000C04F18
:105AE200AF000000D050AF004AB28050AF0078053E
:105AF200C050AF008FB19050AF007805D0C7AF0053
:105B02000000C0C7AF000000D0C8AF004AB280C8D2
:105B1200AF007805C0C8AF008FB190C8AF0078055C
:105B2200D03FB0000000C03FB0000000D03FB00046
:105B32000000E040B0004AB28040B0007805C040AA
:105B4200B0008FB19040B0007805D040B000B5DF12
:105B5200A040B0007805E02FB1000000C02FB100D6
:105B62000000D030B1004AB28030B1007805C030B8
:105B7200B1008FB19030B1007805D0A7B10000001C
:105B8200C0A7B1000000D0A8B1004AB280A8B100FD
:105B92007805C0A8B1008FB190A8B1007805D01FD8
:105BA200B2000000C01FB2000000D01FB20000000F
:105BB200E020B2004AB28020B2007805C020B200D4
:105BC2008FB19020B2007805D020B2004DC7A0203E
:105BD200B2007805E00FB3000000C00FB300000070
:105BE200D00FB3000000E010B3004AB28010B3003F
:105BF2007805C010B3008FB19010B3007805D010B3
:105C0200B3008FB1A010B3007805E0FFB30000002D
:105C1200C0FFB3000000D0FFB3000000E000B400FA
:105C220042948000B4007805C000B400DB6F90009D
:105C3200B4007805D000B40097A7A000B40078059E
:105C4200E0DFB5000000C0DFB5000000D0DFB50026
:105C52000000E0E0B5004AB280E0B5007805C0E09F
:105C6200B500048590E0B5007805D0E0B50097A7AF
:105C7200A0E0B5007805E07FB6000000D07FB60056
:105C82000000E080B60004859080B6007805D080E0
:105C9200B60097A7A080B6007805E01FB700000005
:105CA200D01FB7000000E020B7004F959020B7004A
:105CB2007805D020B7001DBCA020B7007805E0BF52
:105CC200B7000000D0BFB7000000E0C0B7000485F5
:105CD20090C0B7007805D0C0B70097A7A0C0B700A2
:105CE2007805E027B9000000C027B9000000D028DD
:105CF200B90042948028B9007805C028B90004850B
:105D02009028B9007805D09FB9000000C09FB90063
:105D12000000D09FB9000000E0A0B900429480A02A
:105D2200B9007805C0A0B900048590A0B900780533
:105D3200D0A0B90097A7A0A0B9007805E017BA00D3
:105D42000000C017BA000000D018BA002AC6801896
:105D5200BA007805C018BA008D7D9018BA0078058F
:105D6200D08FBA000000C08FBA000000D090BA00F5
:105D720032978090BA007805C090BA00DB6F90909D
:105D8200BA007805D007BB000000C007BB000000C6
:105D9200D008BB001AFA8008BB007805C008BB0017
:105DA200A7639008BB007805D07FBB000000C07FCE
:105DB200BB000000D07FBB000000E080BB0022B22D
:105DC2008080BB007805C080BB000F5E9080BB0066
:105DD2007805D080BB001DBCA080BB007805E0E741
:105DE200BC000000D0E8BC00CC5390E8BC007805B1
:105DF200D05FBD000000D05FBD000000E060BD00CC
:105E0200CC539060BD007805D060BD001DBCA06081
:105E1200BD007805E0D7BD000000D0D8BD00A74A7C
:105E220090D8BD007805D0FFBD000000E000BE00A4
:105E32001DBCA000BE007805E04FBE000000D0509F
:105E4200BE0082429050BE007805D09FBE00000086
:105E5200E0A0BE0027D3A0A0BE007805E0C7BE0028
:105E62000000D0C8BE00C73E90C8BE007805D03F33
:105E7200BF000000D03FBF000000E040BF00ED3790
:105E82009040BF007805D040BF001DBCA040BF00BD
:105E92007805E02FC0000000C02FC0000000D03005
:105EA200C00022B28030C0007805C030C0000F5E52
:105EB2009030C0007805D01FC1000000C01FC10093
:105EC2000000D01FC1000000E020C10022B28020EB
:105ED200C1007805C020C1000F5E9020C100780586
:105EE200D020C1001DBCA020C1007805E0BFC100C8
:105EF2000000C0BFC1000000D0C0C10022A880C005
:105F0200C1007805C0C0C100CC5390C0C100780563
:105F1200D05FC2000000C05FC2000000D060C200BB
:105F220069D68060C2007805C060C200A74A90604E
:105F3200C2007805D0FFC2000000C0FFC20000000E
:105F4200D0FFC2000000E000C30022858000C30031
:105F52007805C000C30077469000C3007805D000E2
:105F6200C30027D3A000C3007805E067C400000087
:105F7200D068C40093699068C4007805D0DFC4007B
:105F82000000D0DFC4000000E0E0C400936990E0AC
:105F9200C4007805D0E0C40027D3A0E0C40078058F
:105FA200E057C5000000D058C5000F5E9058C500EC
:105FB2007805D07FC5000000E080C50027D3A0800F
:105FC200C5007805E0CFC5000000D0D0C500CC5395
:105FD20090D0C5007805D01FC6000000E020C600A2
:105FE2001AFBA020C6007805E047C6000000D04892
:105FF200C600A74A9048C6007805D0BFC600000078
:10600200D0BFC6000000E0C0C600774690C0C60000
:106012007805D0C0C60027D3A0C0C6007805E0FF2F
:10602200C7000000C000C80022858000C8007805B3
:10603200C09FC8000000C09FC8000000D09FC800D9
:106042000000E0A0C800228580A0C8007805C0A09A
:10605200C800774690A0C8007805D0A0C80027D312
:10606200A0A0C8007805E03FC9000000C03FC900F9
:106072000000D040C90069D68040C9007805C04000
:10608200C900A74A9040C9007805D0DFC9000000C6
:10609200C0DFC9000000D0E0C90022A880E0C9002A
:1060A2007805C0E0C900CC5390E0C9007805D07FE4
:1060B200CA000000C07FCA000000D07FCA000000F2
:1060C200E080CA0069D68080CA007805C080CA0014
:1060D20077469080CA007805D080CA00ED8CA080F7
:1060E200CA007805E0BFCB000000C0BFCB000000B3
:1060F200D0C0CB0022A880C0CB007805C0C0CB00A6
:106102000F5E90C0CB007805D05FCC000000C05F6E
:10611200CC000000D05FCC000000E060CC0022B2D6
:106122008060CC007805C060CC000F5E9060CC002F
:106132007805D060CC00ED8CA060CC007805E0FF43
:10614200CC000000D0FFCC000000E000CD000F5ECC
:106152009000CD007805D000CD00ED8CA000CD00E0
:106162007805E09FCD000000D09FCD000000E0A0A8
:10617200CD00936990A0CD007805D0A0CD002F9ED0
:10618200A0A0CD007805E03FCE000000D03FCE00B9
:106192000000E040CE000F5E9040CE007805D04077
:1061A200CE00ED8CA040CE007805E07FCF0000004D
:1061B200D080CF000F5E9080CF007805D01FD00036
:1061C2000000C01FD0000000D01FD0000000E0205F
:1061D200D00022B28020D0007805C020D0000F5E0F
:1061E2009020D0007805D020D000ED8CA020D000E7
:1061F2007805E0BFD0000000D0C0D000936990C005
:10620200D0007805D05FD1000000D060D1000F5ED1
:106212009060D1007805D0FFD1000000C0FFD1000E
:106222000000D0FFD1000000E000D2001AFA800086
:10623200D2007805C000D20093699000D2007805A0
:10624200D000D2002F9EA000D2007805E0EFD2004D
:106252000000C0EFD2000000D0F0D2001AFA80F0A5
:10626200D2007805C0F0D200936990F0D200780590
:10627200D067D3000000C067D3000000D068D3000D
:1062820022B28068D3007805C0DFD3000000C0DFEF
:10629200D3000000E0E0D30022A880E0D30078051C
:1062A200C0E0D3002F9EA0E0D3007805E07FD400A9
:1062B2000000E080D4002F9EA080D4007805E0D0BA
:1062C200D400936990D0D4007805D01FD500000087
:1062D200E020D50097A7A020D5007805E047D5009B
:1062E2000000D048D5000F5E9048D5007805D0BF99
:1062F200D5000000D0BFD5000000E0C0D500CC53CF
:1063020090C0D5007805D0C0D5002F9EA0C0D50082
:106312007805E09FD7000000C09FD7000000D09F03
:10632200D7000000E0A0D70022B280A0D7007805F5
:10633200C0A0D7000F5E90A0D7007805D0A0D700EC
:106342002F9EA0A0D7007805E08FD8000000C08F54
:10635200D8000000D090D8001AFA8090D8007805B2
:10636200C090D80093699090D8007805D07FD9006A
:106372000000C07FD9000000D07FD9000000E0807B
:10638200D90032A08080D9007805C080D900DB6FA7
:106392009080D9007805D080D9001DBCA080D9009A
:1063A2007805E06FDA000000C06FDA000000D070FC
:1063B200DA0032A08070DA007805C070DA00DB6F94
:1063C2009070DA007805D0E7DA000000C0E7DA0062
:1063D2000000D0E8DA001AFA80E8DA007805C05F37
:1063E200DB000000C05FDB000000E060DB0022B2E7
:1063F2008060DB007805C060DB001DBCA060DB00B4
:106402007805E0FFDB000000E000DC001DBCA0001E
:10641200DC007805E050DC00DB6F9050DC00780592
:10642200D09FDC000000E0A0DC0027D3A0A0DC00AD
:106432007805E0C7DC000000D0C8DC00936990C892
:10644200DC007805D03FDD000000D03FDD00000019
:10645200E040DD000F5E9040DD007805D040DD00B9
:106462001DBCA040DD007805E01FDF000000C01F5A
:10647200DF000000D01FDF000000E020DF001AFA7A
:106482008020DF007805C020DF0093699020DF00C4
:106492007805D020DF001DBCA020DF007805E00FCA
:1064A200E0000000C00FE0000000D010E00032A0C9
:1064B2008010E0007805C010E000DB6F9010E00073
:1064C2007805D0FFE0000000C0FFE0000000D0FF30
:1064D200E0000000E000E1002AC68000E10078054B
:1064E200C000E100DB6F9000E1007805D000E10020
:1064F2004F95A000E1007805E0EFE1000000C0EF59
:10650200E1000000D0F0E1002AC680F0E100780549
:10651200C0F0E100DB6F90F0E1007805D067E200A7
:106522000000C067E2000000D068E2003297806895
:10653200E2007805C0DFE2000000C0DFE2000000F8
:10654200E0E0E2001AEC80E0E2007805C0E0E20060
:106552004F95A0E0E2007805E07FE3000000E080D4
:10656200E3004F95A080E3007805E0D0E3008D7D45
:1065720090D0E3007805D01FE4000000E020E400A2
:106582004F95A020E4007805E047E4000000D048E1
:10659200E400DB6F9048E4007805D0BFE40000001F
:1065A200D0BFE4000000E0C0E400936990C0E400C2
:1065B2007805D0C0E4004F95A0C0E4007805E0AFB4
:1065C200E5000000D0B0E500A76390B0E5007805D3
:1065D200D027E6000000D028E600C7589028E60041
:1065E2007805D09FE6000000C09FE6000000D09F23
:1065F200E6000000E0A0E6002A8480A0E60078051C
:10660200C0A0E600CC5390A0E6007805D0A0E6003A
:106612004F95A0A0E6007805E03FE7000000E040CB
:10662200E7004F95A040E7007805E08FE700000003
:10663200D090E700A74A9090E7007805D0DFE70006
:106642000000E0E0E7004F95A0E0E7007805E07F7A
:10665200E8000000C07FE8000000D07FE8000000F2
:10666200E080E80022B28080E8007805C080E8007F
:10667200C7589080E8007805D080E800B5DFA08098
:10668200E8007805E06FE9000000C06FE900000053
:10669200D070E9004AB28070E9007805C070E90064
:1066A2008FB19070E9007805D0E7E9000000C0E7FB
:1066B200E9000000D0E8E9004AB280E8E900780584
:1066C200C0E8E9008FB190E8E9007805D05FEA0000
:1066D2000000C05FEA000000D05FEA000000E06056
:1066E200EA004AB28060EA007805C060EA008FB131
:1066F2009060EA007805D060EA00B5DFA060EA00A9
:106702007805E04FEB000000C04FEB000000D050D6
:10671200EB004AB28050EB007805C050EB008FB11D
:106722009050EB007805D0C7EB000000C0C7EB002B
:106732000000D0C8EB004AB280C8EB007805C0C8A0
:10674200EB008FB190C8EB007805D03FEC00000061
:10675200C03FEC000000D03FEC000000E040EC0045
:106762004AB28040EC007805C040EC008FB1904006
:10677200EC007805D040EC00B5DFA040EC007805D5
:10678200E02FED000000C02FED000000D030ED0042
:106792004AB28030ED007805C030ED008FB1903004
:1067A200ED007805D0A7ED000000C0A7ED000000C5
:1067B200D0A8ED004AB280A8ED007805C0A8ED008F
:1067C2008FB190A8ED007805D01FEE000000C01F29
:1067D200EE000000D01FEE000000E020EE004AB202
:1067E2008020EE007805C020EE008FB19020EE00F0
:1067F2007805D020EE004DC7A020EE007805E00F0E
:10680200EF000000C00FEF000000D00FEF0000000B
:10681200E010EF004AB28010EF007805C010EF00E0
:106822008FB19010EF007805D010EF008FB1A0105B
:10683200EF007805E0FFEF000000C0FFEF0000006E
:10684200D0FFEF000000E000F00042948000F00072
:106852007805C000F000DB6F9000F0007805D000F2
:10686200F00097A7A000F0007805E0DFF10000003B
:10687200C0DFF1000000D0DFF1000000E0E0F10035
:106882004AB280E0F1007805C0E0F100048590E0B2
:10689200F1007805D0E0F10097A7A0E0F1007805BB
:1068A200E07FF2000000D07FF2000000E080F20002
:1068B20004859080F2007805D080F20097A7A0802E
:1068C200F2007805E01FF3000000D01FF300000083
:1068D200E020F3004F959020F3007805D020F300DC
:1068E2001DBCA020F3007805E0BFF3000000D0BF7C
:1068F200F3000000E0C0F300048590C0F3007805C7
:10690200D0C0F30097A7A0C0F3007805E027F500F8
:106912000000C027F5000000D028F500429480282E
:10692200F5007805C028F50004859028F500780563
:10693200D09FF5000000C09FF5000000D09FF50039
:106942000000E0A0F500429480A0F5007805C0A008
:10695200F500048590A0F5007805D0A0F50097A772
:10696200A0A0F5007805E017F6000000C017F600B9
:106972000000D018F6002AC68018F6007805C01864
:10698200F6008D7D9018F6007805D08FF600000095
:10699200C08FF6000000D090F60032978090F6008B
:1069A2007805C090F600DB6F9090F6007805D0076E
:1069B200F7000000C007F7000000D008F7001AFA3D
:1069C2008008F7007805C008F700A7639008F70071
:1069D2007805D07FF7000000C07FF7000000D07F6D
:1069E200F7000000E080F70022B28080F70078050F
:1069F200C080F7000F5E9080F7007805D080F70026
:106A02001DBCA080F7007805E0E7F8000000D0E8A0
:106A1200F800CC5390E8F8007805D05FF900000048
:106A2200D05FF9000000E060F900CC539060F900FB
:106A32007805D060F9001DBCA060F9007805E0D7A8
:106A4200F9000000D0D8F900A74A90D8F9007805DB
:106A5200D0FFF9000000E000FA001DBCA000FA001F
:106A62007805E04FFA000000D050FA0082429050C0
:106A7200FA007805D09FFA000000E0A0FA0027D3C0
:106A8200A0A0FA007805E0C7FA000000D0C8FA001A
:106A9200C73E90C8FA007805D03FFB000000D03F07
:106AA200FB000000E040FB00ED379040FB00780562
:106AB200D040FB001DBCA040FB007805E02FFC008D
:106AC2000000C02FFC000000D030FC0022B2803059
:106AD200FC007805C030FC000F5E9030FC007805A9
:106AE200D01FFD000000C01FFD000000D01FFD00F0
:106AF2000000E020FD0022B28020FD007805C020C9
:106B0200FD000F5E9020FD007805D020FD001DBC29
:106B1200A020FD007805E0BFFD000000C0BFFD0021
:106B22000000D0C0FD0022A880C0FD007805C0C0D2
:106B3200FD00CC5390C0FD007805D05FFE00000040
:106B4200C05FFE000000D060FE0069D68060FE00DB
:106B52007805C060FE00A74A9060FE007805D0FF6D
:106B6200FE000000C0FFFE000000D0FFFE0000009B
:106B7200E000FF0022858000FF007805C000FF00D2
:106B820077469000FF007805D000FF0027D3A000D1
:106B9200FF007805E0DF00010000E0E0000127D3FC
:106BA200A0E000017805E07F01010000E080010122
:106BB20027D3A08001017805E01F02010000E02038
:106BC20002011AFBA02002017805E0BF02010000C9
:106BD200E0C0020127D3A0C002017805E09F0401B2
:106BE2000000C09F04010000D09F04010000E0A04B
:106BF200040151CC80A004017805C0A00401C73E65
:106C020090A004017805D0A0040127D3A0A004011C
:106C12007805E07F06010000C07F06010000D07FFA
:106C220006010000E080060112C680800601780598
:106C3200C0800601A74A908006017805D08006012F
:106C4200B5DFA08006017805E05F08010000C05FA3
:106C520008010000D05F08010000E0600801228DF9
:106C6200806008017805C0600801A74A90600801A9
:106C72007805D0600801B5DFA06008017805E0FF63
:106C820008010000E0000901B5DFA0000901780554
:106C9200E09F09010000E0A009011AFBA0A0090180
:106CA2007805E03F0A010000E0400A01B5DFA0409C
:106CB2000A017805E01F0C010000C01F0C01000052
:106CC200D01F0C010000E0200C0122B280200C0138
:106CD2007805C0200C01C75890200C017805D020FF
:106CE2000C01B5DFA0200C017805E0FF0D010000CA
:106CF200C0FF0D010000D0FF0D010000E0000E01F9
:106D020022A880000E017805C0000E01184F9000E5
:106D12000E017805D0000E0103EDA0000E017805EA
:106D2200E09F0E010000E0A00E0197A7A0A00E01B7
:106D32007805E03F0F010000E0400F01ED8CA0401C
:106D42000F017805E0DF0F010000E0E00F0181761E
:106D5200A0E00F017805E07F10010000E080100143
:106D6200CC53A08010017805E01F11010000E02043
:106D720011017746A02011017805E0BF1101000042
:106D8200E0C01101413BA0C011017805E09F130151
:106D92000000C09F13010000D09F13010000E0A07B
:106DA2001301228580A013017805C0A01301C73EFC
:106DB20090A013017805D07F15010000C07F150156
:106DC2000000D0801501228D808015017805C080D9
:106DD2001501A74A908015017805D0801501DB6F57
:106DE200A08015017805E05F17010000C05F170160
:106DF2000000D05F17010000E060170122B280603E
:106E020017017805C0601701C7589060170178050F
:106E1200D0601701B5DFA06017017805E0FF170108
:106E22000000E0001801B5DFA00018017805E09F1E
:106E320018010000E0A01801B5DFA0A01801780534
:106E4200E03F19010000E0401901B5DFA04019013F
:106E52007805E01F1B010000C01F1B010000D01FAE
:106E62001B010000E0201B0122B280201B017805DB
:106E7200C0201B01C75890201B017805D0FF1C01C0
:106E82000000C0FF1C010000D0001D0122A88000EC
:106E92001D017805C0001D01184F90001D017805E5
:106EA200D0001D0103EDA0001D017805E09F1D012A
:106EB2000000E0A01D0197A7A0A01D017805E03FFA
:106EC2001E010000E0401E01ED8CA0401E0178056D
:106ED200E0DF1E010000E0E01E018176A0E01E015D
:106EE2007805E07F1F010000E0801F01CC53A080E5
:106EF2001F017805E01F20010000E02020017746F5
:106F0200A02020017805E0BF20010000E0C02001A0
:106F1200413BA0C020017805E09F22010000C09FF4
:106F220022010000D09F22010000E0A02201228560
:106F320080A022017805C0A02201C73E90A02201B4
:106F42007805D07F24010000C07F24010000D0809A
:106F52002401228D808024017805C0802401A74A63
:106F6200908024017805D0802401DB6FA080240169
:106F72007805E05F26010000C05F26010000D05FB7
:106F820026010000E060260122B280602601780519
:106F9200C0602601C758906026017805D06026019E
:106FA200B5DFA06026017805E0FF26010000E000C1
:106FB2002701B5DFA00027017805E09F2701000027
:106FC200E0A02701B5DFA0A027017805E03F280156
:106FD2000000E0402801B5DFA04028017805E01F4D
:106FE2002A010000C01F2A010000D01F2A01000050
:106FF200E0202A01329780202A017805C0202A0148
:10700200C75890202A017805D0FF2B010000C0FF4D
:107012002B010000D0002C011AFA80002C01780507
:10702200C0002C01184F90002C017805D0002C01D3
:107032002F9EA0002C017805E0DF2D010000E0E08A
:107042002D012F9EA0E02D017805E07F2E0100008A
:10705200E0802E012F9EA0802E017805E01F2F01D7
:107062000000E0202F0197A7A0202F017805E0BFA4
:107072002F010000E0C02F012F9EA0C02F01780534
:10708200E09F31010000C09F31010000D09F31011B
:107092000000E0A0310122A880A031017805C0A043
:1070A2003101C73E90A031017805D0A031012F9E59
:1070B200A0A031017805E03F32010000E04032013A
:1070C2002F9EA04032017805E0DF32010000E0E0AF
:1070D20032012F9EA0E032017805E07F33010000EB
:1070E200C07F33010000D07F33010000E080330114
:1070F20022B2808033017805C0803301CC53908066
:1071020033017805D080330197A7A0803301780539
:10711200E05F35010000C05F35010000D05F35013E
:107122000000E060350132A0806035017805C06062
:107132003501CC53906035017805D060350197A7B1
:10714200A06035017805E0FF35010000E00036015E
:1071520097A7A00036017805E09F36010000E0A065
:1071620036011DBCA0A036017805E03F37010000C2
:10717200E040370197A7A04037017805E01F3901A9
:107182000000C01F39010000D01F39010000E020BB
:1071920039014294802039017805C0203901DB6F22
:1071A200902039017805D020390197A7A020390114
:1071B2007805E0BF39010000E0C0390197A7A0C0FF
:1071C20039017805E05F3A010000E0603A0197A7D3
:1071D200A0603A017805E0FF3A010000C0FF3A01E1
:1071E2000000D0FF3A010000E0003B012AC6800007
:1071F2003B017805C0003B018D7D90003B01780585
:10720200D0003B014F95A0003B017805E0EF3B0128
:107212000000C0EF3B010000D0F03B012AC680F025
:107222003B017805C0F03B018D7D90F03B01780574
:10723200D0673C010000C0673C010000D0683C01FF
:10724200329780683C017805C0DF3C010000C0DF56
:107252003C010000E0E03C011AEC80E03C017805D2
:10726200C0E03C014F95A0E03C017805E07F3D0184
:107272000000E0803D014F95A0803D017805E0D0FF
:107282003D01817690D03D017805D01F3E0100007E
:10729200E0203E014F95A0203E017805E0473E01E7
:1072A2000000D0483E01DB6F90483E017805D0BF18
:1072B2003E010000D0BF3E010000E0C03E01A763D6
:1072C20090C03E017805D0C03E014F95A0C03E015E
:1072D2007805E0AF3F010000D0B03F01A76390B056
:1072E2003F017805D02740010000D0284001C7584F
:1072F200902840017805D09F40010000C09F4001C6
:107302000000D09F40010000E0A040012A8480A03C
:1073120040017805C0A04001CC5390A040017805FF
:10732200D0A040014F95A0A040017805E03F410167
:107332000000E04041014F95A04041017805E08FF7
:1073420041010000D0904101A74A90904101780587
:10735200D0DF41010000E0E041014F95A0E0410192
:107362007805E07F42010000C07F42010000D07F2B
:1073720042010000E080420122B280804201780591
:10738200C0804201C758908042017805D0804201F6
:10739200B5DFA08042017805E06F43010000C06FB5
:1073A20043010000D07043014AB280704301780566
:1073B200C07043018FB1907043017805D0E743015B
:1073C2000000C0E743010000D0E843014AB280E870
:1073D20043017805C0E843018FB190E84301780585
:1073E200D05F44010000C05F44010000D05F44014F
:1073F2000000E06044014AB2806044017805C06048
:1074020044018FB1906044017805D0604401B5DF3A
:10741200A06044017805E04F45010000C04F4501DE
:107422000000D05045014AB2805045017805C05055
:1074320045018FB1905045017805D0C74501000044
:10744200C0C745010000D0C845014AB280C8450105
:107452007805C0C845018FB190C845017805D03F75
:1074620046010000C03F46010000D03F4601000037
:10747200E04046014AB2804046017805C0404601DC
:107482008FB1904046017805D0404601B5DFA0405B
:1074920046017805E02F47010000C02F4701000098
:1074A200D03047014AB2803047017805C0304701E9
:1074B2008FB1903047017805D0A747010000C0A7DF
:1074C20047010000D0A847014AB280A847017805C9
:1074D200C0A847018FB190A847017805D01F480185
:1074E2000000C01F48010000D01F48010000E0203A
:1074F20048014AB2802048017805C02048018FB176
:10750200902048017805D02048014DC7A0204801AD
:107512007805E00F49010000C00F49010000D00FBB
:1075220049010000E01049014AB280104901780582
:10753200C01049018FB1901049017805D01049015E
:107542008FB1A01049017805E0FF49010000C0FF9A
:1075520049010000D0FF49010000E0004A014294C5
:1075620080004A017805C0004A01048590004A0162
:107572007805D0004A01B5DFA0004A017805E07F16
:1075820051010000C07F51010000D07F5101000075
:10759200E07F5101000060000000B12848000000B7
:1075A2000000C00000001A8480000000EE02C0004B
:1075B20000000000D0000000A76390000000F4016A
:1075C200D0EF00000000C0F0000012C680F0000002
:1075D200EE02C0DF01000000C0E0010049FC80E0D3
:1075E2000100EE02C0CF02000000C0CF0200000086
:1075F200D0D00200228D80D00200EE02C0D0020064
:10760200817690D00200F401D0BF03000000C0C018
:107612000300519080C00300EE02C0AF04000000DE
:10762200C0B004000AEC80B00400EE02C09F050066
:107632000000C09F05000000D0A0050049A880A05E
:107642000500EE02C0A00500936990A00500F401B8
:10765200D08F06000000C09006000AEC8090060061
:10766200EE02C07F07000000C07F07000000D0804C
:1076720007001A8480800700EE02C0800700A7631B
:1076820090800700F401D04F0A000000C04F0A00AA
:107692000000D0500A0049FC80500A00EE02C0509F
:1076A2000A00C75890500A00F401D03F0B000000B6
:1076B200C0400B002A8480400B00EE02C02F0C0059
:1076C2000000C0300C002A8480300C00EE02C01F83
:1076D2000D000000C01F0D000000D0200D00228D03
:1076E20080200D00EE02C0200D00A76390200D0047
:1076F200F401D00F0E000000C0100E0049FC8010F3
:107702000E00EE02C0FF0E000000C0FF0E000000DF
:10771200D0000F0012C680000F00EE02C0000F0062
:10772200817690000F00F401D0CF11000000D0D07C
:107732001100936990D01100F401D0BF1200000033
:10774200C0B0130022A880B01300EE02C09F140044
:107752000000C09F14000000D0A014002A8480A062
:107762001400EE02C0A01400817690A01400F4016F
:10777200D08F15000000C0901500228D809015005A
:10778200EE02C07F16000000C07F16000000D0800D
:10779200160049FC80801600EE02C0801600A76326
:1077A20090801600F401D04F19000000C04F19005C
:1077B2000000D050190012C680501900EE02C050CD
:1077C2001900817690501900F401D0C71900000009
:1077D200C0C8190049FC80C81900EE02C03F1A0057
:1077E2000000C0401A00228D80401A00EE02C01F25
:1077F2001C000000D0201C00048590201C00F40115
:10780200D0FF1D000000C0FF1D000000D0001E00C0
:107812001A8480001E00EE02C0001E00A7639000C2
:107822001E00F401D0EF1E000000C0F01E0012C6C0
:1078320080F01E00EE02C0DF1F000000C0E01F004B
:1078420049FC80E01F00EE02C0CF20000000C0CF44
:1078520020000000D0D020001A8480D02000EE0248
:10786200C0D02000817690D02000F401D0BF21004A
:107872000000C0C02100519080C02100EE02C0AFC4
:1078820022000000C0B0220049A880B02200EE020F
:10789200C09F23000000C09F23000000D0A023004F
:1078A20049A880A02300EE02C0A02300936990A003
:1078B2002300F401D08F24000000C09024005190D6
:1078C20080902400EE02C07F25000000C07F2500CA
:1078D2000000D08025000AEC80802500EE02C080E6
:1078E2002500A76390802500F401D04F28000000F6
:1078F200C04F28000000D05028001A848050280071
:10790200EE02C0502800C75890502800F401D01F42
:107912002B000000D0202B00A76390202B00F40145
:10792200D0FF2C000000C0FF2C000000D0002D0072
:1079320012C680002D00EE02C0002D00817690005C
:107942002D00F401D0EF2D000000C0F02D0049FC05
:1079520080F02D00EE02C0DF2E000000C0E02E00FD
:10796200228D80E02E00EE02C0CF2F000000C0CF9B
:107972002F000000D0D02F002A8480D02F00EE02EA
:10798200C0D02F00936990D02F00F401D0BF3000F7
:107992000000C0C030001A8480C03000EE02C0AFC8
:1079A20031000000C0B0310012C680B03100EE02DA
:1079B200C09F32000000C09F32000000D0A0320001
:1079C20049FC80A03200EE02C0A03200C75890A04D
:1079D2003200F401D08F33000000C0903300228DBA
:1079E20080903300EE02C07F34000000C07F34007C
:1079F2000000D08034002A8480803400EE02C080EF
:107A02003400A76390803400F401D04F37000000A7
:107A1200D0503700817690503700F401D03F3800C3
:107A22000000C03039002A8480303900EE02C01FC5
:107A32003A000000C01F3A000000D0203A00228D18
:107A420080203A00EE02C0203A00048590203A00DD
:107A5200F401D00F3B000000C0103B0049FC801035
:107A62003B00EE02C0FF3B000000C0FF3B000000F5
:107A7200D0003C0012C680003C00EE02C0003C0078
:107A82004F9590003C00F401D0BF3F000000C0BF02
:107A92003F000000D0C03F001A8480C03F00EE02C9
:107AA200C0C03F00048590C03F00F401D08F420067
:107AB2000000C090420012C680904200EE02C07FD9
:107AC20043000000C07F43000000D080430049FC17
:107AD20080804300EE02C0804300A7639080430091
:107AE200F401D04F46000000D050460081769050FD
:107AF2004600F401D03F47000000C03048002A840D
:107B020080304800EE02C01F49000000C01F49003B
:107B12000000D0204900228D80204900EE02C020C2
:107B22004900048590204900F401D00F4A0000006A
:107B3200C0104A0049FC80104A00EE02C0FF4A0011
:107B42000000C0FF4A000000D0004B0012C68000B7
:107B52004B00EE02C0004B004F9590004B00F40129
:107B6200D0DF4C000000C0E04C0012C680E04C00A8
:107B7200EE02C0BF4E000000C0BF4E000000D0C0E9
:107B82004E001A8480C04E00EE02C0C04E00048532
:107B920090C04E00F401D08F51000000C0905100FF
:107BA20012C680905100EE02C00752000000C008C9
:107BB20052001A8480085200EE02C07F5200000078
:107BC200C07F52000000D080520049FC80805200E9
:107BD200EE02C0805200A76390805200F401D03FB1
:107BE20056000000C03F56000000D0405600C75863
:107BF20090405600F401D030570049FC80305700C5
:107C0200EE02C01F58000000C01F58000000D02024
:107C12005800228D80205800EE02C0205800A76331
:107C220090205800F401D00F59000000C0105900F4
:107C32002A8480105900EE02C0FF59000000C0FFE4
:107C420059000000D0005A00228D80005A00EE0236
:107C5200C0005A00817690005A00F401D0BF5D0046
:107C62000000C0BF5D000000D0C05D001AEC80C003
:107C72005D00EE02C0C05D00C75890C05D00F40117
:107C8200D09F5F000000C0A05F0049FC80A05F00A1
:107C9200EE02C07F61000000C07F61000000D08062
:107CA2006100228D80806100EE02C08061008176D9
:107CB20090806100F401D03F65000000C03F650084
:107CC2000000D04065002A8480406500EE02C0407A
:107CD2006500A76390406500F401D01F67000000B3
:107CE200C02067001AEC80206700EE02C0FF680027
:107CF2000000C0FF68000000D000690022A88000D8
:107D02006900EE02C0006900936990006900F40105
:107D1200D0BF6C000000C0BF6C000000D0C06C007F
:107D22002A8480C06C00EE02C0C06C00817690C0D4
:107D32006C00F401D09F6E000000C0A06E0049FCF0
:107D420080A06E00EE02C07F70000000C07F700055
:107D52000000D080700049FC80807000EE02C0807C
:107D62007000817690807000F401D03F74000000B2
:107D7200C03F74000000D0407400228D8040740027
:107D8200EE02C0407400936990407400F401D0FF89
:107D920077000000C0FF77000000D00078001A844E
:107DA20080007800EE02C0007800A763900078009F
:107DB200F401D0EF78000000C0F0780012C680F025
:107DC2007800EE02C0DF79000000C0E0790049FCD3
:107DD20080E07900EE02C0CF7A000000C0CF7A00C6
:107DE2000000D0D07A00228D80D07A00EE02C0D07E
:107DF2007A00817690D07A00F401D0BF7B00000037
:107E0200C0C07B00519080C07B00EE02C0AF7C00FE
:107E12000000C0B07C000AEC80B07C00EE02C09F83
:107E22007D000000C09F7D000000D0A07D0049A819
:107E320080A07D00EE02C0A07D00936990A07D002D
:107E4200F401D08F7E000000C0907E000AEC80908A
:107E52007E00EE02C07F7F000000C07F7F00000036
:107E6200D0807F001A8480807F00EE02C0807F0075
:107E7200A76390807F00F401D04F82000000C04FC2
:107E820082000000D050820049FC80508200EE0245
:107E9200C0508200C75890508200F401D03F830046
:107EA2000000C04083002A8480408300EE02C02F7D
:107EB20084000000C03084002A8480308400EE02F6
:107EC200C01F85000000C01F85000000D020850073
:107ED200228D80208500EE02C0208500A7639020BD
:107EE2008500F401D00F86000000C010860049FC16
:107EF20080108600EE02C0FF86000000C0FF8600F0
:107F02000000D000870012C680008700EE02C00089
:107F12008700817690008700F401D0CF89000000AD
:107F2200D0D08900936990D08900F401D0BF8A0033
:107F32000000C0B08B0022A880B08B00EE02C09F70
:107F42008C000000C09F8C000000D0A08C002A840E
:107F520080A08C00EE02C0A08C00817690A08C00E4
:107F6200F401D08F8D000000C0908D00228D809092
:107F72008D00EE02C07F8E000000C07F8E000000E8
:107F8200D0808E0049FC80808E00EE02C0808E0080
:107F9200A76390808E00F401D04F91000000C04F83
:107FA20091000000D050910012C680509100EE0264
:107FB200C0509100817690509100F401D0C7910099
:107FC2000000C0C8910049FC80C89100EE02C03F89
:107FD20092000000C0409200228D80409200EE028A
:107FE200C01F94000000D0209400048590209400CB
:107FF200F401D0FF95000000C0FF95000000D00002
:1080020096001A8480009600EE02C0009600A763D4
:1080120090009600F401D0EF96000000C0F09600A8
:1080220012C680F09600EE02C0DF97000000C0E0AA
:10803200970049FC80E09700EE02C0CF9800000054
:10804200C0CF98000000D0D098001A8480D0980049
:10805200EE02C0D09800817690D09800F401D0BF93
:1080620099000000C0C09900519080C09900EE02B2
:10807200C0AF9A000000C0B09A0049A880B09A0030
:10808200EE02C09F9B000000C09F9B000000D0A09A
:108092009B0049A880A09B00EE02C0A09B009369B0
:1080A20090A09B00F401D08F9C000000C0909C0027
:1080B200519080909C00EE02C07F9D000000C07F26
:1080C2009D000000D0809D000AEC80809D00EE02A1
:1080D200C0809D00A76390809D00F401D04FA00056
:1080E2000000C04FA0000000D050A0001A848050B1
:1080F200A000EE02C050A000C7589050A000F401AA
:10810200D01FA3000000D020A300A7639020A300EB
:10811200F401D0FFA4000000C0FFA4000000D000C2
:10812200A50012C68000A500EE02C000A50081765F
:108132009000A500F401D0EFA5000000C0F0A5005A
:1081420049FC80F0A500EE02C0DFA6000000C0E0FE
:10815200A600228D80E0A600EE02C0CFA70000009C
:10816200C0CFA7000000D0D0A7002A8480D0A700EB
:10817200EE02C0D0A700936990D0A700F401D0BF4F
:10818200A8000000C0C0A8001A8480C0A800EE02A7
:10819200C0AFA9000000C0B0A90012C680B0A900FB
:1081A200EE02C09FAA000000C09FAA000000D0A05B
:1081B200AA0049FC80A0AA00EE02C0A0AA00C758EB
:1081C20090A0AA00F401D08FAB000000C090AB00D9
:1081D200228D8090AB00EE02C07FAC000000C07F19
:1081E200AC000000D080AC002A848080AC00EE029B
:1081F200C080AC00A7639080AC00F401D04FAF0008
:108202000000D050AF0081769050AF00F401D03F13
:10821200B0000000C030B1002A848030B100EE020C
:10822200C01FB2000000C01FB2000000D020B20088
:10823200228D8020B200EE02C020B2000485902080
:10824200B200F401D00FB3000000C010B30049FC2B
:108252008010B300EE02C0FFB3000000C0FFB30005
:108262000000D000B40012C68000B400EE02C000CC
:10827200B4004F959000B400F401D0BFB7000000E5
:10828200C0BFB7000000D0C0B7001A8480C0B700DA
:10829200EE02C0C0B700048590C0B700F401D08FD1
:1082A200BA000000C090BA0012C68090BA00EE0276
:1082B200C07FBB000000C07FBB000000D080BB00BD
:1082C20049FC8080BB00EE02C080BB00A7639080A7
:1082D200BB00F401D04FBE000000D050BE0081763A
:1082E2009050BE00F401D03FBF000000C030C0007B
:1082F2002A848030C000EE02C01FC1000000C01FEF
:10830200C1000000D020C100228D8020C100EE02F9
:10831200C020C10004859020C100F401D00FC2002A
:108322000000C010C20049FC8010C200EE02C0FF73
:10833200C2000000C0FFC2000000D000C30012C68D
:108342008000C300EE02C000C3004F959000C3003E
:10835200F401D0DFC4000000C0E0C40012C680E017
:10836200C400EE02C0BFC6000000C0BFC6000000CD
:10837200D0C0C6001A8480C0C600EE02C0C0C600CB
:10838200048590C0C600F401D08FC9000000C090DF
:10839200C90012C68090C900EE02C007CA000000E0
:1083A200C008CA001A848008CA00EE02C07FCA0050
:1083B2000000C07FCA000000D080CA0049FC808053
:1083C200CA00EE02C080CA00A7639080CA00F4010E
:1083D200D03FCE000000C03FCE000000D040CE0013
:1083E200C7589040CE00F401D030CF0049FC803015
:1083F200CF00EE02C01FD0000000C01FD00000005E
:10840200D020D000228D8020D000EE02C020D000EB
:10841200A7639020D000F401D00FD1000000C0105B
:10842200D1002A848010D100EE02C0FFD1000000EA
:10843200C0FFD1000000D000D200228D8000D20007
:10844200EE02C000D20081769000D200F401D0BFCB
:10845200D5000000C0BFD5000000D0C0D5001AEC86
:1084620080C0D500EE02C0C0D500C75890C0D5006C
:10847200F401D09FD7000000C0A0D70049FC80A023
:10848200D700EE02C07FD9000000C07FD9000000F3
:10849200D080D900228D8080D900EE02C080D90020
:1084A20081769080D900F401D03FDD000000C03F0A
:1084B200DD000000D040DD002A848040DD00EE02B5
:1084C200C040DD00A7639040DD00F401D01FDF0053
:1084D2000000C020DF001AEC8020DF00EE02C0FFA7
:1084E200E0000000C0FFE0000000D000E10022A890
:1084F2008000E100EE02C000E10093699000E1001B
:10850200F401D0BFE4000000C0BFE4000000D0C00E
:10851200E4002A8480C0E400EE02C0C0E400817658
:1085220090C0E400F401D09FE6000000C0A0E60085
:1085320049FC80A0E600EE02C07FE8000000C07F98
:10854200E8000000D080E80049FC8080E800EE02EC
:10855200C080E80081769080E800F401D03FEC0012
:108562000000C03FEC000000D040EC00228D8040B3
:10857200EC00EE02C040EC0093699040EC00F40184
:10858200D0FFEF000000C0FFEF000000D000F000BD
:108592001A848000F000EE02C000F000A763900091
:1085A200F000F401D0EFF0000000C0F0F00012C6BD
:1085B20080F0F000EE02C0DFF1000000C0E0F10048
:1085C20049FC80E0F100EE02C0CFF2000000C0CF13
:1085D200F2000000D0D0F200228D80D0F200EE0234
:1085E200C0D0F200817690D0F200F401D0BFF30047
:1085F2000000C0C0F300519080C0F300EE02C0AF93
:10860200F4000000C0B0F4000AEC80B0F400EE0206
:10861200C09FF5000000C09FF5000000D0A0F5004B
:1086220049A880A0F500EE02C0A0F500936990A0D1
:10863200F500F401D08FF6000000C090F6000AECBD
:108642008090F600EE02C07FF7000000C07FF700C6
:108652000000D080F7001A848080F700EE02C0800C
:10866200F700A7639080F700F401D04FFA000000F2
:10867200C04FFA000000D050FA0049FC8050FA00C6
:10868200EE02C050FA00C7589050FA00F401D03FF1
:10869200FB000000C040FB002A848040FB00EE0289
:1086A200C02FFC000000C030FC002A848030FC0097
:1086B200EE02C01FFD000000C01FFD000000D02020
:1086C200FD00228D8020FD00EE02C020FD00A76388
:1086D2009020FD00F401D00FFE000000C010FE004B
:1086E20049FC8010FE00EE02C0FFFE000000C0FF49
:1086F200FE000000D000FF0012C68000FF00EE0264
:10870200C000FF0081769000FF00F401D0CF01018C
:108712000000D0D00101936990D00101F401D0BFD3
:1087220002010000C0B0030122A880B00301EE02E2
:10873200C09F04010000C09F04010000D0A00401FA
:108742002A8480A00401EE02C0A00401817690A0D8
:108752000401F401D08F05010000C0900501228DB3
:1087620080900501EE02C07F06010000C07F060175
:108772000000D080060149FC80800601EE02C08024
:108782000601A76390800601F401D04F09010000A1
:10879200C04F09010000D050090112C680500901E2
:1087A200EE02C0500901817690500901F401D0C750
:1087B20009010000C0C8090149FC80C80901EE0294
:1087C200C03F0A010000C0400A01228D80400A0118
:1087D200EE02C01F0C010000D0200C010485902085
:1087E2000C01F401D0FF0D010000C0FF0D010000DB
:1087F200D0000E011A8480000E01EE02C0000E01AC
:10880200A76390000E01F401D0EF0E010000C0F04A
:108812000E0112C680F00E01EE02C0DF0F01000051
:10882200C0E00F0149FC80E00F01EE02C0CF100151
:108832000000C0CF10010000D0D010011A8480D0F7
:108842001001EE02C0D01001817690D01001F40127
:10885200D0BF11010000C0C01101519080C01101B0
:10886200EE02C0AF12010000C0B0120149A880B0F0
:108872001201EE02C09F13010000C09F130100000D
:10888200D0A0130149A880A01301EE02C0A01301D9
:10889200936990A01301F401D08F14010000C090DD
:1088A2001401519080901401EE02C07F1501000066
:1088B200C07F15010000D08015010AEC80801501EF
:1088C200EE02C0801501A76390801501F401D04F1C
:1088D20018010000C04F18010000D05018011A847E
:1088E20080501801EE02C0501801C758905018016C
:1088F200F401D01F1B010000D0201B01A7639020B0
:108902001B01F401D0FF1C010000C0FF1C0100008C
:10891200D0001D0112C680001D01EE02C0001D0123
:10892200817690001D01F401D0EF1D010000C0F01E
:108932001D0149FC80F01D01EE02C0DF1E01000096
:10894200C0E01E01228D80E01E01EE02C0CF1F0199
:108952000000C0CF1F010000D0D01F012A8480D0A8
:108962001F01EE02C0D01F01936990D01F01F401D4
:10897200D0BF20010000C0C020011A8480C02001A5
:10898200EE02C0AF21010000C0B0210112C680B0CA
:108992002101EE02C09F22010000C09F22010000BF
:1089A200D0A0220149FC80A02201EE02C0A0220137
:1089B200C75890A02201F401D08F23010000C0907B
:1089C2002301228D80902301EE02C07F240100004A
:1089D200C07F24010000D08024012A8480802401E9
:1089E200EE02C0802401A76390802401F401D04FDD
:1089F20027010000D0502701817690502701F40111
:108A0200D03F28010000C03029012A84803029018A
:108A1200EE02C01F2A010000C01F2A010000D02060
:108A22002A01228D80202A01EE02C0202A0104851B
:108A320090202A01F401D00F2B010000C0102B015D
:108A420049FC80102B01EE02C0FF2B010000C0FF89
:108A52002B010000D0002C0112C680002C01EE0276
:108A6200C0002C014F9590002C01F401D0BF2F01C2
:108A72000000C0BF2F010000D0C02F011A8480C0A7
:108A82002F01EE02C0C02F01048590C02F01F40116
:108A9200D08F32010000C090320112C680903201A4
:108AA200EE02C07F33010000C07F33010000D0809E
:108AB200330149FC80803301EE02C0803301A76399
:108AC20090803301F401D04F36010000D0503601BE
:108AD200817690503601F401D03F37010000C0305A
:108AE20038012A8480303801EE02C01F39010000AB
:108AF200C01F39010000D0203901228D80203901A8
:108B0200EE02C0203901048590203901F401D00F12
:108B12003A010000C0103A0149FC80103A01EE020D
:108B2200C0FF3A010000C0FF3A010000D0003B0143
:108B320012C680003B01EE02C0003B014F9590003F
:108B42003B01F401D0DF3C010000C0E03C0112C651
:108B520080E03C01EE02C0BF3E010000C0BF3E010A
:108B62000000D0C03E011A8480C03E01EE02C0C0A7
:108B72003E01048590C03E01F401D08F4101000006
:108B8200C090410112C680904101EE02C00742012D
:108B92000000C00842011A8480084201EE02C07F30
:108BA20042010000C07F42010000D080420149FC26
